:020000040000FA
:100000000A128A1110280134FE00030E8312031312
:10001000A1000408A2000A08A3000A128A15322AC5
:100020000A128A1113280A128A1103200A128A114D
:10003000E300831790308400E4300A168A158E2678
:100040000A128A118313A0308400D0300A168A1550
:100050008E260A128A114C30840063300A168A15E3
:100060008E2683010A128A15012883162208031D91
:10007000C32883124E084F04031DC328D030CE007E
:100080000730CF008316A201A20A0A308312A6000D
:100090000030A7002F08053EB20030080318013ECB
:1000A000003EB300320884008317331C831300081A
:1000B000A800A901A81BA9030A168A114D240A1237
:1000C0008A112608B4003408DD000A30A60000308A
:1000D000A7002F08053EB20030080318013E003E7D
:1000E000B300320884008317331C83130008A80070
:1000F000A901A81BA9030A168A115F230A128A11F3
:100100002608B4003408DE000A30A6000030A7003C
:100110002F08063EB20030080318013E003EB3002F
:10012000320884008317331C83130008A800A90138
:10013000A81BA9030A168A114D240A128A1126083F
:10014000B4003408DF000A30A6000030A7002F08F2
:10015000063EB20030080318013E003EB3003208EC
:1001600084008317331C83130008A800A901A81B6F
:10017000A9030A168A115F230A128A112608B400FD
:100180003408E000D72883124E084F04031DD728F7
:100190002A30B20052085D3E84003208831380008A
:1001A0008316A20190308312CE000130CF000630BA
:1001B0003106031D6D290130B2003208D207043028
:1001C0005202031C0429D2010A30A6000030A70005
:1001D0002F08063EB20030080318013E003EB3006F
:1001E000320884008317331C83130008A800A90178
:1001F000A81BA9030A168A115F230A128A1126086E
:10020000B4003408E0006D2902305206031D28298D
:100210000A30A6000030A7002F08063EB2003008C2
:100220000318013E003EB300320884008317331CDC
:1002300083130008A800A901A81BA9030A168A11A4
:100240004D240A128A112608B4003408DF006D29F3
:100250005203031D4B290A30A6000030A7002F08C7
:10026000053EB20030080318013E003EB3003208DC
:1002700084008317331C83130008A800A901A81B5E
:10028000A9030A168A115F230A128A112608B400EC
:100290003408DE006D295208031D6D290A30A600BE
:1002A0000030A7002F08053EB20030080318013EB9
:1002B000003EB300320884008317331C8313000808
:1002C000A800A901A81BA9030A168A114D240A1225
:1002D0008A112608B4003408DD0008303106031DF9
:1002E000362C5208031D5F2A2F08053EB200300845
:1002F0000318013E003EB300320884008317331C0C
:10030000831300080A3EB4002F08053EB5003008EC
:100310000318013E003EB600350884008317361CE2
:100320008313340880002F08053EB20030080318FC
:10033000013E003EB300320884008317331C831350
:100340000008B400B501B41BB5032F08840083175F
:10035000301C83133508803A803C031DB1293408D2
:1003600000020318EC290A3083120313B20032088A
:10037000A6002F0884008317301C831300080A1678
:100380008A15B5270A128A11B3002F088400831733
:10039000301C83130008B3022F08053EB400300858
:1003A0000318013E003EB500340884008317351C55
:1003B000831300083307F63EB6002F08053EB7004A
:1003C00030080318013E003EB80037088400831748
:1003D000381C8313360880000A3083120313B200DE
:1003E0003208A6002F08033EB30030080318013E70
:1003F000003EB400330884008317341C83130008C4
:100400000A168A1572270A128A11B5000A30B60038
:100410003608A6002F0884008317301C83130008B9
:100420000A168A1572270A128A113506031DB42B83
:100430000A30A6000030A7002F08053EB2003008A1
:100440000318013E003EB300320884008317331CBA
:1004500083130008A800A901A81BA9030A168A1182
:100460005F230A128A112608B4002708B5000A3053
:10047000B6003608A6002F0884008317301C8313AB
:1004800000080A168A15B5270A128A113402B70025
:100490002F0884008317301C831300083707B80027
:1004A0002F08053EB90030080318013E003EBA008F
:1004B0003908840083173A1C83133808B32B52037E
:1004C000031DB52A2F08053EB20030080318013E6F
:1004D000003EB300320884008317331C83130008E6
:1004E000013EB4002F08053EB50030080318013E58
:1004F000003EB600350884008317361C8313340889
:1005000080002F08053EB20030080318013E003E6F
:10051000B300320884008317331C83130008B4002F
:10052000B501B41BB5032F0884008317301C831357
:100530003508803A803C031D9F2A340800020318C6
:10054000B42B831203132F08033EB20030080318A4
:10055000013E003EB300320884008317331C83132E
:100560000008B4002F08053EA72B02305206031DD9
:10057000492B2F08063EB20030080318013E003E0A
:10058000B300320884008317331C831300080A3E2B
:10059000B4002F08063EB50030080318013E003EA7
:1005A000B600350884008317361C83133408800096
:1005B0002F08063EB20030080318013E003EB3008B
:1005C000320884008317331C83130008B400B5017C
:1005D000B41BB5032F08013EB60030080318013ED6
:1005E000003EB700360884008317371C8313350894
:1005F000803A803C031DFE2A340800020318B42B05
:100600000A3083120313B2003208A6002F08013EFD
:10061000B30030080318013E003EB40033088400E4
:100620008317341C831300080A168A15B5270A128B
:100630008A11B5002F08013EB60030080318013EAC
:10064000003EB700360884008317371C8313000868
:10065000B5022F08063EB80030080318013E003EE0
:10066000B900380884008317391C83130008350744
:10067000F63EBA002F08063EBB0030080318013EC4
:10068000003EBC003B08840083173C1C83133A08DF
:10069000B32B03305206031DB42B2F08063EB200C5
:1006A00030080318013E003EB3003208840083176F
:1006B000331C83130008013EB4002F08063EB5002A
:1006C00030080318013E003EB60035088400831749
:1006D000361C8313340880002F08063EB200300811
:1006E0000318013E003EB300320884008317331C18
:1006F00083130008B400B501B41BB5032F08013EF5
:10070000B60030080318013E003EB70036088400EA
:100710008317371C83133508803A803C031D922BC6
:10072000340800020318B42B831203132F08043E6D
:10073000B20030080318013E003EB30032088400C6
:100740008317331C83130008B4002F08063EB5003E
:1007500030080318013E003EB600350884008317B8
:10076000361C8313340880000A3083120313A6005A
:100770000030A7002F08053EB20030080318013EE4
:10078000003EB300320884008317331C8313000833
:10079000A800A901A81BA9030A168A114D240A1250
:1007A0008A112608B4003408DD000A30A6000030A3
:1007B000A7002F08053EB20030080318013E003E96
:1007C000B300320884008317331C83130008A80089
:1007D000A901A81BA9030A168A115F230A128A110C
:1007E0002608B4003408DE000A30A6000030A70056
:1007F0002F08063EB20030080318013E003EB30049
:10080000320884008317331C83130008A800A90151
:10081000A81BA9030A168A114D240A128A11260858
:10082000B4003408DF000A30A6000030A7002F080B
:10083000063EB20030080318013E003EB300320805
:1008400084008317331C83130008A800A901A81B88
:10085000A9030A168A115F230A128A112608B40016
:100860003408E0005830CE001B30CF000A3031068B
:10087000031D08005208031DC22C2F08053EB200BC
:1008800030080318013E003EB3003208840083178D
:10089000331C83130008F63EB4002F08053EB50054
:1008A00030080318013E003EB60035088400831767
:1008B000361C8313340880002F08053EB200300830
:1008C0000318013E003EB300320884008317331C36
:1008D00083130008B400B501B41BB5032F08033E11
:1008E000B60030080318013E003EB7003608840009
:1008F0008317371C83133508803AB80080303802DC
:10090000031D842C0008340203182C2E83120313B9
:100910002F08053EB20030080318013E003EB30028
:10092000320884008317331C83130008B4000A3094
:10093000B5003508A6002F0884008317301C8313E8
:1009400000080A168A15B5270A128A11B6002F0860
:1009500084008317301C83130008B7003608370261
:1009600034070A3EB8002F08053EB90030080318C6
:10097000013E003EBA003908840083173A1C8313F5
:1009800038082B2E5203031D262D2F08053EB200DA
:1009900030080318013E003EB3003208840083177C
:1009A000331C83130008FF3EB4002F08053EB5003A
:1009B00030080318013E003EB60035088400831756
:1009C000361C8313340880002F08053EB20030081F
:1009D0000318013E003EB300320884008317331C25
:1009E00083130008B400B501B41BB5032F08033E00
:1009F000B60030080318013E003EB70036088400F8
:100A00008317371C83133508803AB80080303802CA
:100A1000031D0C2D0008340203182C2E831203131F
:100A20002F0884008317301C83130008B2002F089E
:100A3000053EB30030080318013E003EB400330801
:100A400084008317341C831332082B2E0230520685
:100A5000031DBF2D2F08063EB20030080318013ECB
:100A6000003EB300320884008317331C8313000850
:100A7000F63EB4002F08063EB50030080318013ECC
:100A8000003EB600350884008317361C83133408F3
:100A900080002F08063EB20030080318013E003ED9
:100AA000B300320884008317331C83130008B4009A
:100AB000B501B41BB5032F08043EB6003008031877
:100AC000013E003EB700360884008317371C8313AD
:100AD0003508803AB80080303802031D712D0008B7
:100AE000340203182C2E831203132F08063EB20083
:100AF00030080318013E003EB3003208840083171B
:100B0000331C83130008B4000A30B5003508A60072
:100B10002F08013EB60030080318013E003EB70022
:100B2000360884008317371C831300080A168A15B9
:100B3000B5270A128A11B8002F08013EB900300803
:100B40000318013E003EBA003908840083173A1C9E
:100B500083130008BB0038083B0234070A3EBC0080
:100B60002F08063EBD0030080318013E003EBE00BF
:100B70003D08840083173E1C83133C082B2E033052
:100B80005206031D2C2E2F08063EB2003008031813
:100B9000013E003EB300320884008317331C8313E8
:100BA0000008FF3EB4002F08063EB50030080318C9
:100BB000013E003EB600350884008317361C8313BF
:100BC000340880002F08063EB20030080318013EAA
:100BD000003EB300320884008317331C83130008DF
:100BE000B400B501B41BB5032F08043EB6003008AD
:100BF0000318013E003EB700360884008317371CF7
:100C000083133508803AB80080303802031D0A2E5D
:100C10000008340203182C2E831203132F08013E00
:100C2000B20030080318013E003EB30032088400D1
:100C30008317331C83130008B4002F08063EB50049
:100C400030080318013E003EB600350884008317C3
:100C5000361C8313340880000A3083120313A60065
:100C60000030A7002F08053EB20030080318013EEF
:100C7000003EB300320884008317331C831300083E
:100C8000A800A901A81BA9030A168A114D240A125B
:100C90008A112608B4003408DD000A30A6000030AE
:100CA000A7002F08053EB20030080318013E003EA1
:100CB000B300320884008317331C83130008A80094
:100CC000A901A81BA9030A168A115F230A128A1117
:100CD0002608B4003408DE000A30A6000030A70061
:100CE0002F08063EB20030080318013E003EB30054
:100CF000320884008317331C83130008A800A9015D
:100D0000A81BA9030A168A114D240A128A11260863
:100D1000B4003408DF000A30A6000030A7002F0816
:100D2000063EB20030080318013E003EB300320810
:100D300084008317331C83130008A800A901A81B93
:100D4000A9030A168A115F232608B4003408E000BC
:100D50005830CE001B30CF0008008316D400DC30A2
:100D6000D2000030D30001308312C1004108DB0003
:100D70004008031DF42EA60120300A128A11E22732
:100D80000A128A110B3083120313C3002630C200EB
:100D90005D30C100C10BCA2EC20BCA2EC30BCA2EB6
:100DA000831603135408043E84008317000883123B
:100DB000C1004108A70083165408033E84000008C0
:100DC0000A168A11B5210A128A1183165408033EA5
:100DD00084000008D2000130D30002308312C10029
:100DE00041088316D000392F4003031D392FA60177
:100DF00025300A128A11E2270A128A110B30831257
:100E00000313C3002630C2005D30C100C10B062FA2
:100E1000C20B062FC30B062FD53083120313AF006E
:100E20000030B0000A128A15E9260A128A11560803
:100E30008312C10083165408840083170008063EFD
:100E40008400831241088000831657088312C10072
:100E50008316540884000008053E8400831241086C
:100E600080008316540884000008D2000130D300AB
:100E7000D00104308312C1004108DA008316520801
:100E80008312AF00831653088312B00083165108F3
:100E90008312C1004108B1000A128A1135200A12DA
:100EA0008A113F080A168A11CA250A128A11C1003E
:100EB00041088316D10051085006031D3E2F5208E9
:100EC000073E8312C100831653080318013E003EFB
:100ED0008312C200410884008317421C8313000858
:100EE000031DCB2F4008031D8A2F83165408043E90
:100EF0008400831700088312C1004108A8008316EC
:100F00005408033E840000080A168A11E8200A12D9
:100F10008A11AC2F4003031DAC2F8316D501540852
:100F2000840083170008063E840000088312C10075
:100F300041088316D600540884000008053E84004A
:100F400000088312C10041088316D700D5300A1269
:100F50008A150A250A128A118312A6012A300A125A
:100F60008A11E2270A128A11153083120313C30073
:100F70004B30C200BD30C100C10BBC2FC20BBC2F17
:100F8000C30BBC2FC32F83120313A6012F300A12E9
:100F90008A11E227080083165208073E8312C10017
:100FA000831653080318013E003E8312C200410815
:100FB00084008317421C831300088316D20001307B
:100FC000D3003E2FA800A9012908280784000A168B
:100FD0008A1100200A128A11A70029085D3E8400A8
:100FE0002708831380000130A7002708A9070430D1
:100FF0002902031CE42F2608A7002708DA000800AE
:101002000A168A1593270A128A150A168A15E526E0
:101012000A128A150A168A15A2260A128A1515308C
:101022000A128A15C1220A128A1522300A168A1158
:1010320033260A128A151B3083120313CA004A0888
:10104200C6002230CB004B08C70010300A168A11A6
:10105200AA230A128A151530CA004A08C4001B3096
:10106200CB004B08C50022300A168A1118210A1239
:101072008A151C280A168A15C7260A128A150930EB
:10108200BC003C08C000C301400843020318B0285A
:101092004308BC003C07013E84000A168A11002066
:1010A2000A128A15BD000A168A1100200A128A1530
:1010B200BE003D08B4003E08B500B601B7010A16ED
:1010C2008A1163200A128A158312C101C2014308E0
:1010D200133E84000A168A1100200A128A15BC00E7
:1010E200BD013C08A6003D08A7000830A800073053
:1010F200A9000A168A1124220A128A152608BE009D
:101102002708BF000310BF0CBE0C0310BF0CBE0C9F
:101112003F084202031D8F283E0841020318AB28F4
:101122005A08BC003C08B1005D300A168A11142727
:101132000A128A150430B3000030B4000A168A116C
:10114200BB200A128A150130C1070318C20A0030F7
:10115200C20768280130BC003C08C30745280A16AC
:101162008A15BA260800C5004508840047300006E3
:10117200031D1F29450A840030300006031D1F2964
:10118200A60134300A128A11E2270A128A15DB01FB
:101192000A128A153B200A128A1545080A168A1174
:1011A200F8230A128A15290A2A04031DCE281429B3
:1011B200450A840030300006031D2529A6013E3071
:1011C2000A128A11E2270A128A15DB010A128A150B
:1011D2003B200A128A1545080A168A11F8230A12B8
:1011E2008A15290A2A04031DEC281429450A8400B9
:1011F20042300006031D2B29A60139300A128A113A
:10120200E2270A128A15DB010A128A153B200A120A
:101212008A1545080A168A11F8230A128A15290A1C
:101222002A04031D0A290130C4004408DB00A60178
:101232002F300A128A11E227013008004508840083
:10124200573000060319D928450884005730000694
:101252000319F72800300800AA002A088400831323
:101262000008031D65292A08033E84000008A60021
:10127200840A0008A700260884008317271C83130A
:101282000008A8000130A9002A0A84008313000A7A
:101292004C290310A90DFF3E031D4A2929082805E0
:1012A200031D65292A0884008001800A2A08023E5B
:1012B20084008001800A7830D0001E30D1002A08D4
:1012C200053E8400000808002A08033E8400000846
:1012D200A600840A0008A700260884008317271C9A
:1012E20083130008A8000130A9002A0A840083138E
:1012F200000A7D290310A90DFF3E031D7B29290841
:101302002805031998292A0884000003031D982937
:101312001B3051025830031950020318AB292A0816
:10132200840080012A08023E84008001AB292A0839
:10133200023E84000003031DAB2950085104031D23
:10134200AB292A08023E840080012A08063E840056
:10135200000808000C300800C3004308AF00013049
:10136200B0000A128A15E9260A128A1583123C086D
:10137200033E840083170008053E84000008A6008F
:10138200A701A61BA7033C30A8000030A9000A163B
:101392008A1551270A128A153C08033E8400000868
:1013A200063E840000082607BD000030801BFF3087
:1013B2000318013E2707BE003C08043E84000008D3
:1013C200053E84000008A600A701A61BA7033C3027
:1013D200A8000030A9000A168A1551270A128A1598
:1013E2003C08043E84000008063E840000082607EC
:1013F200BF000030801BFF300318013E2707C000EA
:101402004308023E84000008A600A701A61BA7030A
:101412003C30A8000030A9000A168A1551270A128A
:101422008A15430A840000082607C1000030801B89
:10143200FF300318013E2707C20042083E02031D87
:10144200242A41083D02031C302A40084202031D9F
:101452002C2A3F084102031C302A013008000030C8
:1014620008008B1A0B1D6B2A10305502031C482AE8
:101472005B03031D482A5A08A0002008FB005D30C8
:101482000A168A119F260A128A15D5014C2A0130A2
:10149200A0002008D507500851040319562A01302C
:1014A200D0020030031CD103D1024E084F040319AD
:1014B200602A0130CE020030031CCF03CF024C0859
:1014C2004D0403196A2A0130CC020030031CCD03FB
:1014D200CD020B110D1C962A83160D1C962A013083
:1014E2008312A0002008DC006208031D7F2A1D0869
:1014F200F03905389D00E201E20A842A1D08F0391C
:1015020004389D00E2011C08A5001B08A400243039
:10151200A0002008F30062300A128A15DF250A12A1
:101522008A1583128E018F010D1083120C1DB72AAA
:1015320083160C1DB72A831256080319A62A170808
:10154200F03908389700D601AC2A1708F039093863
:101552009700D601D60A83162108831296008316B5
:101562002008831295008E018F010C11831223082B
:101572008A0022088400210E8300FE0E7E0E0900DE
:101582008312A700C930A600270884002608831703
:101592008000C230A600270A840026088000BB30E3
:1015A200A6002708023E840026088000B430A60068
:1015B2002708033E840026088000AD30A6002708D5
:1015C200043E840026088000A630A6002708053EB7
:1015D2008400260880008316CA010030CD00063040
:1015E200CC00CE01CF01CF0AC901CB010730831253
:1015F200A60026088316C3000030C6000730C500C7
:1016020002308312A60026088316C7000330831215
:10161200A60026088316C800C201C4010530831241
:10162200A60026088316BC000030BF000730BE00AB
:1016320004308312A60026088316C00005308312E8
:10164200A60026088316C100BB01BD01B501B50A7B
:101652000030B8000630B70006308312A600260814
:101662008316B90007308312A60026088316BA0033
:10167200B401B60103308312A60026088316AE0019
:101682000030B1000630B00008308312A6002608F0
:101692008316B20009308312A60026088316B3000F
:1016A200AD01AF0102308312A60026088316A700FF
:1016B2000030AA000630A9000A308312A6002608CC
:1016C2008316AB000B308312A60026088316AC00EB
:1016D200A601A8010800F200A62BFC300800603029
:1016E2000800DA300800F230080066300800B63030
:1016F2000800BE300800E4300800FE300800F63072
:101702000800EE3008003E3008009C3008007A30B5
:1017120008009E3008008E300800BC3008006E3091
:101722000800703008001C300800EC3008002A3035
:101732000800733008000A3008001E3008007C30B0
:10174200080076300800003008007208F000F1014D
:101752007108003A0319AE2BA42B7008003A031942
:101762006E2B013A0319702B033A0319722B013ABB
:101772000319742B073A0319762B013A0319782BB4
:10178200033A03197A2B013A03197C2B0F3A0319F6
:101792007E2B013A0319802B233A0319A42B1A3A00
:1017A20003196E2B013A0319702B033A0319722B9A
:1017B200013A0319742B073A0319762B013A0319DC
:1017C200782B033A03197A2B013A03197C2B0F3A2F
:1017D20003197E2B013A0319802B583A0319822BE5
:1017E200033A0319842B013A0319862B073A03198A
:1017F200882B013A03198A2B033A03198C2B013ADD
:1018020003198E2B0F3A0319902B013A0319702BEF
:10181200033A0319922B013A0319902B073A031941
:10182200942B013A0319962B033A0319982B013A88
:1018320003196E2B1F3A03199A2B023A03199C2B98
:10184200013A0319782B073A03199E2B013A03191F
:10185200A02B033A0319A02B013A0319A02B0F3A2C
:101862000319902B013A0319A22B033A0319722B85
:10187200A42B0800A800752CFC300800603008007A
:10188200DA300800F230080066300800B63008008E
:10189200BE300800E4300800FE300800F6300800D0
:1018A200EE3008003E3008009C3008007A30080014
:1018B2009E3008008E300800BC3008006E300800F0
:1018C200703008001C300800EC3008002A30080094
:1018D200733008000A3008001E3008007C3008000F
:1018E20076300800003008002808A600A701270863
:1018F200003A03197D2C732C2608003A03193D2C5B
:10190200013A03193F2C033A0319412C013A0319F6
:10191200432C073A0319452C013A0319472C033A81
:101922000319492C013A03194B2C0F3A03194D2C78
:10193200013A03194F2C233A0319732C1A3A03194B
:101942003D2C013A03193F2C033A0319412C013A69
:101952000319432C073A0319452C013A0319472C62
:10196200033A0319492C013A03194B2C0F3A031974
:101972004D2C013A03194F2C583A0319512C033AB2
:101982000319532C013A0319552C073A0319572C02
:10199200013A0319592C033A03195B2C013A031932
:1019A2005D2C0F3A03195F2C013A03193F2C033ABD
:1019B2000319612C013A03195F2C073A0319632CAE
:1019C200013A0319652C033A0319672C013A0319EA
:1019D2003D2C1F3A0319692C023A03196B2C013A68
:1019E2000319472C073A03196D2C013A03196F2C7E
:1019F200033A03196F2C013A03196F2C0F3A03199A
:101A02005F2C013A0319712C033A0319412C732CF0
:101A120008008312B8008B1338088400831300086F
:101A22000A168A15F8260A128A15B1003108B3007F
:101A3200380A8400831300080A168A15F8260A1247
:101A42008A15B1003108B4003808023E84008313BD
:101A520000080A168A15F8260A128A15B1003108FA
:101A6200B5003808053E840083130008B100063033
:101A72000310B10DFF3E031D392D3808033E8400CB
:101A820000080A168A15F8260A128A153104B200CD
:101A92003208B6003808063E840083130008B100FD
:101AA20005300310B10DFF3E031D522D3808043ED0
:101AB200840000081F390A168A15F8260A128A15A8
:101AC2003104B2003208B7008030B1003108A800FA
:101AD20000300A168A118F200A128A150A168A15F0
:101AE20082260A128A15A0308312A6000030A700AF
:101AF2000A168A1587260A128A150230A6000030B5
:101B0200A7000A168A1587260A128A153308B10019
:101B1200B2013108A6003208A7000A168A158726E4
:101B22000A128A153408B100B2013108A60032083F
:101B3200A7000A168A1587260A128A153508B100E7
:101B4200B2013108A6003208A7000A168A158726B4
:101B52000A128A153608B100B2013108A60032080D
:101B6200A7000A168A1587260A128A153708B100B5
:101B7200B2013108A6003208A7000A168A15872684
:101B82000A128A150A168A1148200A128A15831225
:101B92003808053E840083130008B1003108A8000C
:101BA20010300A168A118F200A128A158312A80190
:101BB20000300A168A118F208B170800F80053088C
:101BC200031D0A2E7308840083130008F400840A9C
:101BD2000008F50029307502AA3003197402031CAB
:101BE2000800730884000008F400840A0008F50065
:101BF2003E3075027E300319740203180800831602
:101C0200A3018312E101D401D301D30A8316A501F2
:101C1200080053080319080083162308031D792EB0
:101C22007308840083130008F400840A0008F50096
:101C320014307502D53003197402031C312E730857
:101C420084000008F400840A0008F5001F307502C1
:101C52003F30031974020318312EA301A30A0800AE
:101C6200730884000008F400840A0008F500293093
:101C72007502AA3003197402031C762E73088400BD
:101C82000008F400840A0008F5003E3075027E3038
:101C9200031974020318762E780884000008031DC5
:101CA200602E8312540AF4008030F5000030F600F2
:101CB2005D2E760DF60CF50CF40B5A2E6B2E83125C
:101CC200540AF400F501F601692E760DF60CF50CB6
:101CD200F40B662E7508F700770883120313E106EA
:101CE2000130F4007408D407C02E8312D301080017
:101CF2007308840083130008F400840A0008F500C6
:101D020014307502D53003197402031C762E730841
:101D120084000008F400840A0008F5001F307502F0
:101D22003F30031974020318762E780884000008E5
:101D3200031DA92E8312540AF4008030F5000030EE
:101D4200F600A62E760DF60CF50CF40BA32EB42E8F
:101D52008312540AF400F501F601B22E760DF60C48
:101D6200F50CF40BAF2E7508F700770883120313F6
:101D7200E1060130F4007408D4078316A301083089
:101D820083125402031C080024306106031DCC2E6A
:101D92008316A401A40A831624080319DD2EF00178
:101DA200F00A61300A168A1160220A128A1501307D
:101DB200F40074088316A5078312E101D4010630EA
:101DC20083162502031C0800A4018312D301080014
:101DD2008B130A168A1582260A128A15A0308312DC
:101DE200A6000030A7000A168A1587260A128A154D
:101DF2000230A6000030A7000A168A1587260A12AA
:101E02008A150A168A1582260A128A15A1308312A9
:101E1200A6000030A7000A168A1587260A128A151C
:101E220001300A168A15D8270A128A15B10031081C
:101E3200B60001300A168A15D8270A128A15B1008F
:101E42003108B70001300A168A15D8270A128A15F6
:101E5200B1003108B80001300A168A15D8270A12D3
:101E62008A15B1003108B90000300A168A15D82740
:101E72000A128A15B1003108BA000A168A114820DE
:101E82000A128A15831236080A168A114D200A127E
:101E92008A15B1002F0884008317301C8313310880
:101EA200800037080A168A114D200A128A15B100DD
:101EB2002F08013EB20030080318013E003EB30075
:101EC200320884008317331C8313310880003808DA
:101ED2003F390A168A114D200A128A15B1002F08BD
:101EE200023EB20030080318013E003EB300320841
:101EF20084008317331C83133108800039083F396B
:101F02000A168A114D200A128A15B1002F08033EC3
:101F1200B20030080318013E003EB30032088400CC
:101F22008317331C8313310880003A081F390A16BD
:101F32008A114D200A128A15B1002F08043EB20000
:101F420030080318013E003EB300320884008317B4
:101F5200331C8313310880003A08B10005300310A6
:101F6200B10CFF3E031DB02F3108B2002F08063E10
:101F7200B30030080318013E003EB4003308840069
:101F82008317341C8313320880003908B1000630ED
:101F92000310B10CFF3E031DC92F3108B2003208F5
:101FA200B50010300A168A11EA210A128A15B10008
:101FB2003108BB003B08033935060319E52F013010
:101FC200B1003108BB07DB2F3B08B1002F08053EEB
:101FD200B20030080318013E003EB300320884000C
:101FE2008317331C8313310880003B08B10031088A
:101FF200A80010300A168A118F208B1708001030A3
:102002008A000408840A82070034933402340B34B1
:1020120002344B34023488340134013400348834BD
:1020220001344B340234933402340B34023404341A
:1020320004340434023440340434043404340234A6
:102042000834073421341034733465347434313431
:10205200003473347234743463340034733461344E
:102062007634653400342A342A342A342A3400344B
:102072006234723461346D34003464347A347734C7
:102082006F340034663475347234743400340A1692
:102092008A15962611150800AD000F302D05AA00ED
:1020A2000A30AB002B08A6002D08AC000430031048
:1020B200AC0CFF3E031D58282C080A168A15D4269C
:1020C2002A0708003408B8003508B9003608BA00F3
:1020D2003708BB0006300310B80DB90DBA0DBB0DA1
:1020E200FF3E031D6C283B08A9003A08A8003908E6
:1020F200A7003808A6000030AD007A30AC001230DC
:10210200AB000030AA000A168A11A62427088316FB
:10211200A100831226088316A0000800AB000A164D
:102122008A1582260A168A11A0308312A600003070
:10213200A7000A168A1587260A168A112B08A900F3
:10214200AA012908A6002A08A7000A168A158726C6
:102152000A168A112808A900AA012908A6002A0835
:10216200A7000A168A1587260A168A110A168A11E4
:10217200482008003308A6003408A700A801A901D6
:102182000030AD000030AC000030AB007D30AA0062
:102192000A168A119F220A168A112608B5002708F4
:1021A200B6002808B7002908B80005300310B80C9B
:1021B200B70CB60CB50CFF3E031DD7283608CF006E
:1021C2003508CE004E084F0403190800E328831295
:1021D200AA00A6012A08053E840000080A168A15EC
:1021E20014270A168A11A601A60A2A08063E8400A6
:1021F20000080A168A1514270A168A110230A90045
:102202002908A6002808053E840000080A168A1537
:1022120014270A168A110330A9002908A6002808E3
:10222200063E840000080A168A1514270800C70013
:1022320044080A168A11CA250A168A11C6004608D7
:10224200C80006304806031D2F294408C600460868
:10225200BC0045080A168A11892708004808031D90
:102262003D294408C6004608BF00C001C00A47080D
:102272000A128A11AD26080002304806031D080022
:102282004408C6004608BF00C00147080A128A1166
:10229200AD260800FA000A168A1578260A168A114F
:1022A2007708F8007808F3007A080A128A156C2376
:1022B2000A168A110A168A1104250A168A11692930
:1022C200861308000613080086120800061208008A
:1022D2007608F800F9017908003A031971297F2973
:1022E2007808013A03196129033A03196329013A6B
:1022F20003196529073A031967297F290800B000E5
:102302000A168A157D260A168A112D08AE002E0895
:10231200A90030080A128A153B240A168A110A16E5
:102322008A1167250A168A119E2986130800061348
:10233200080086120800061208002C08AE00AF0141
:102342002F08003A0319A629B4292E08013A0319C5
:102352009629033A03199829013A03199A29073A47
:1023620003199C29B42908008312A90000300A1617
:102372008A15AE260A168A110313A8002908053EFB
:1023820084002808800001300A168A15AE260A1633
:102392008A110313A8002908063E84002808800039
:1023A20002300A168A15AE260A168A110313A800ED
:1023B2002708053E84002808800003300A168A1583
:1023C200AE260313A8002708063E840028088000D2
:1023D2000800AD000A168A1582260A168A11A03054
:1023E2008312A6000030A7000A168A1587260A164D
:1023F2008A112D08AB00AC012B08A6002C08A700FF
:102402000A168A1587260A168A110A168A1582263C
:102412000A168A11A1308312A6000030A7000A16FC
:102422008A1587260A168A1100300A168A15D827B5
:102432000A168A11AB002B08AE000A168A11482030
:1024420083122E080800AC01AD01260827040319E7
:102452005B2AAB01AB0AA71B3A2A01300310A60D77
:10246200A70DFF3E031D2F2A0130AA002A08AB0741
:102472002C2A01300310AC0DAD0DFF3E031D3B2A8B
:1024820027082902031D472A26082802031C502A6E
:102492002608A8022708031CA903A9022C1401304C
:1024A2000310A70CA60CFF3E031D512A0130AB02FC
:1024B200031D3A2A2D08A7002C08A6000800F200E6
:1024C2007003031D862A83125808F1007108D70091
:1024D2000130F1007108D8073C3058060319D801C1
:1024E20058085906031D7A2A5708F1007108D800C6
:1024F20008007208840083130008F1005808903E17
:102502008400710883178000080083125808590656
:10251200031908000130F1007108D9073C3059064F
:102522000319D9015908903E840083170008F1006D
:102532007208840071088313800008000030B20022
:102542000030B1000030B0000030AF00261CBD2AC0
:102552002A08AF072B0803110318013E031DB00719
:102562002C0803110318013E031DB1072D080311A6
:102572000318013E031DB2070130AE000310AA0D7D
:10258200AB0DAC0DAD0DAE0BBF2A01300310A90C83
:10259200A80CA70CA60CFF3E031DC72A2908280475
:1025A20027042604031DA72A3208A9003108A8001F
:1025B2003008A7002F08A6000800A8002603031D64
:1025C200182B5808A7002708D7000130A7002708B2
:1025D200D8073C3058060319D80158085906031D7C
:1025E200F82A5708A7002708D800FE300800280854
:1025F200840083130008A7005808903E840027082F
:102602008317152B0130A7002708D9073C3059063C
:102612000319D9015908903E840083170008A700C6
:102622002808840027088313800001300800580816
:102632005906031D032BFF300800AB00AE01AF01AA
:10264200AC0126082C0203185A2B2C082B07A800D1
:10265200280884000008A900AA012908AA00A901E3
:102662002908AE062A08AF06AD01AF1F462B2F0878
:10267200A9002E08A8000310A80DA90D21302806D4
:10268200AE0010302906AF004D2B01300310AE0D05
:10269200AF0DFF3E031D472B0130A8002808AD07F0
:1026A20008302D02031C362B0130A8002808AC0785
:1026B200222B2F08A7002E08A6000800AC01A91F94
:1026C200692BA809A909A80A0319A90AAC01AC0A2D
:1026D200A71F702BA609A709A60A0319A70A26088D
:1026E200270403199D2BAB01AB0AA71B842B0130D6
:1026F2000310A60DA70DFF3E031D792B0130AA0082
:102702002A08AB07762B27082902031D8A2B2608E5
:102712002802031C922B2608A8022708031CA903DF
:10272200A90201300310A70CA60CFF3E031D932B38
:102732000130AB02031D842B2C080319A52BA80919
:10274200A909A80A0319A90A2908A7002808A600A6
:102752000800C9005C03031D0800D830CC005930C2
:10276200CD008718B82B5030CE000030CF004E0875
:102772004F040319C02B4C084D04031D08004908DF
:102782000A168A11F8230A168A11290A2A04031939
:10279200F62B4908043E8400831700080319C02B56
:1027A20049080A168A1530270A168A11003A0319AF
:1027B200F02B4708C8004808BC0046080A128A15D0
:1027C200AD210A168A11003A0319F02B49080A12A0
:1027D2008A15B4200A168A11003A031D0800490816
:1027E200043E840083178001C02BDC010800AD0089
:1027F200A6012E300A168A11DE220A168A11FF3A23
:10280200031D082CFF30A9000030AA000800243064
:102812002E06031DF92BAF012F082D07AB002B0845
:102822008400831780010130AB002B08AF0704300E
:102832002F02031C0D2CAF01A6012E300A168A119D
:10284200DE220A168A11FF3A0319032C26302E06BD
:10285200031D3A2C04302F06031D3A2C2D08043E8A
:10286200840083178001800A0A30A9000030AA0080
:1028720008002E08AB002F082D07AC002C0884009E
:102882002B08831780000130AB002B08AF070530FF
:102892002F020318F92B1D2CAC01A71F572CA609D8
:1028A200A709A60A0319A70AAC01AC0AA91F622C40
:1028B200A809A909A80A0319A90A0130AA002A0825
:1028C200AC06AD01AE01260827040319992CAB0111
:1028D200AB0AA71B782C01300310A60DA70DFF3EF3
:1028E200031D6D2C0130AA002A08AB076A2C0130A7
:1028F2000310AD0DAE0DFF3E031D792C27082902F2
:10290200031D852C26082802031C8E2C2608A802EB
:102912002708031CA903A9022D1401300310A70CD8
:10292200A60CFF3E031D8F2C0130AB02031D782C39
:102932002C080319A12CAD09AE09AD0A0319AE0A80
:102942002E08A7002D08A60008000030B2000030B3
:10295200B1000030B0000030AF002908280427047D
:1029620026040319FB2CB301B30AA91BC62C0130A0
:10297200AE000310A60DA70DA80DA90DAE0BBA2C23
:102982000130AE002E08B307B62C0130AE000310A2
:10299200AF0DB00DB10DB20DAE0BC82C29082D0232
:1029A200031DDD2C28082C02031DDD2C27082B0219
:1029B200031DDD2C26082A02031CEE2C2608AA027F
:1029C2002708031C270FAB022808031C280FAC02A0
:1029D2002908031C290FAD022F1401300310A90C82
:1029E200A80CA70CA60CFF3E031DEF2C0130B3026E
:1029F200031DC62C3208A9003108A8003008A70020
:102A02002F08A6000800F5007508F400073003102F
:102A1200F40CFF3E031D082D741C112D0517122DF9
:102A220005137508F40006300310F40CFF3E031D75
:102A3200152D741C1E2D85171F2D85137508F40086
:102A420005300310F40CFF3E031D222D741C2B2DA8
:102A520085162C2D85127508F40004300310F40C31
:102A6200FF3E031D2F2D741C382D0516392D05121E
:102A72007508F40003300310F40CFF3E031D3C2DD7
:102A8200741C452D8515462D85117508F4000230FC
:102A92000310F40CFF3E031D492D741C522D051525
:102AA200532D05117508F40001300310F40CFF3E9C
:102AB200031D562D741C5F2D8514602D8510730324
:102AC200031D652D0514080005100800AB002B0836
:102AD200AA0007300310AA0CFF3E031D6B2D2A1C0F
:102AE200742D0517752D05132B08AA000630031047
:102AF200AA0CFF3E031D782D2A1C812D8517822DDD
:102B020085132B08AA0005300310AA0CFF3E031DF3
:102B1200852D2A1C8E2D85168F2D85122B08AA0035
:102B220004300310AA0CFF3E031D922D2A1C9B2D7C
:102B320005169C2D05122B08AA0003300310AA0CBF
:102B4200FF3E031D9F2D2A1CA82D8515A92D851139
:102B52002B08AA0002300310AA0CFF3E031DAC2D65
:102B62002A1CB52D0515B62D05112B08AA0001301A
:102B72000310AA0CFF3E031DB92D2A1CC22D851479
:102B8200C32D85102903031DC82D05140800051047
:102B92000800AC002C088400831700080A128A156A
:102BA2002D210A168A11AB002B08AD000C302D0620
:102BB2000319DD2D2D0808002C08053E840083171B
:102BC20000080A128A152D210A168A11AB002B0859
:102BD200AD000C302D06031DDB2D2C08033E8400B6
:102BE200831700080A128A152D210A168A11AB00D2
:102BF2002B08AD000C302D06031DDB2D2C0A8400A2
:102C0200831700080A128A152D210A168A11AB00B1
:102C12002B08AD000C302D06031DDB2D2C08023EC7
:102C22008400831700080A128A152D210A168A11B8
:102C3200AB002B08AD000C302D06031DDB2D2C083C
:102C4200043E8400831700080A128A152D210A16F1
:102C52008A11AB002B08AD000C302D06031DDB2DB5
:102C62000C3008008312AB00DB010A168A157D26A0
:102C72000A168A11DC30AA002B0884002A0883175E
:102C82008000D430AA002B08033E84002A0880006A
:102C9200CC30AA002B08043E84002A0880002B08AE
:102CA200043E84000008AA002A08A7002B08033E5D
:102CB200840000080A168A11B5210A168A111730F3
:102CC200AA002A0883160317DC003B308312031381
:102CD200AA002A0883160317DD00DF01E001E301E1
:102CE200173083120313AA002A0883160317D4008D
:102CF2003B3083120313AA002A0883160317D50058
:102D0200D701D801CC3083120313AA002A088316F4
:102D12000317DB00173083120313AA002A08831655
:102D22000317CC003B3083120313AA002A08831630
:102D32000317CD00CF01D001D3010800FD000230FE
:102D420063020318BA2EFB1DAB2EF601F60AF70139
:102D5200F70AAE2EF601F60AF7017D088400831306
:102D620000080A168A114B210230FC007C08E3009D
:102D7200080002306306031DD82E7B1DC72E0230C9
:102D8200FC007C08F600F701F70ACC2E0230FC00AA
:102D92007C08F600F7017D0A8400831300080A16F6
:102DA2008A114B210330FC007C08E3000800033049
:102DB2006306031DF72EFB1CE52E0330FC007C0886
:102DC200F600F701F70AEA2E0330FC007C08F60051
:102DD200F7017D08023E8400831300080A168A1157
:102DE2004B210430FC007C08E3000800043063023D
:102DF200031C08007B1C042F0430FC007C08F60036
:102E0200F701F70A092F0430FC007C08F600F701ED
:102E12007D08033E8400831300080A168A114B21A1
:102E2200E301E30A0800B3000230630203182F2F04
:102E3200B11D202FAC01AC0AAD01AD0A232FAC01AC
:102E4200AC0AAD0133088400831300080A168A1104
:102E520080210230B2003208E3000800023063062B
:102E6200031D4D2F311D3C2F0230B2003208AC0041
:102E7200AD01AD0A412F0230B2003208AC00AD0103
:102E8200330A8400831300080A168A118021033052
:102E9200B2003208E300080003306306031D6C2F02
:102EA200B11C5A2F0330B2003208AC00AD01AD0A9A
:102EB2005F2F0330B2003208AC00AD013308023E8E
:102EC2008400831300080A168A1180210430B2009C
:102ED2003208E300080004306302031C0800311CBE
:102EE200792F0430B2003208AC00AD01AD0A7E2F5A
:102EF2000430B2003208AC00AD013308033E840056
:102F0200831300080A168A118021E301E30A0800EC
:102F1200BE003E08AF000130B0000A128A15E92651
:102F22000A168A1101308312BD003D08DB000A3007
:102F3200A6000030A7003E08023E84008317000866
:102F4200A800A901A81BA9030A168A114D240A1672
:102F52008A112608BD003D08DD000A30A6000030B7
:102F6200A7003E08023E840083170008A800A901BA
:102F7200A81BA9030A168A115F230A168A112608BA
:102F8200BD003D08DE000A30A6000030A7003E0A60
:102F9200840083170008A800A901A81BA9030A1628
:102FA2008A114D240A168A112608BD003D08DF0049
:102FB2000A30A6000030A7003E0A840083170008EA
:102FC200A800A901A81BA9030A168A115F230A16E1
:102FD2008A112608BD003D08E0000430BD003D080E
:102FE200DA003C080A168A11CA250A168A11063A1C
:0E2FF200031DF22FDB010A168A157D2608004A
:103CF00086170617861606160800861706178616F4
:103D0000061608000A168A159626111408000A16C7
:103D10008A15962683122608930008006400800105
:103D2000840A04060319003404068F2E8316911D9D
:103D30001119962E911C1118962E111A962E141DDB
:103D40000800962E831294161408F039083894004F
:103D5000133083169300910194010800A6008B1381
:103D6000260803178D0083168C130C148B178312EF
:103D70000C08080083160C11CF30831290058316AF
:103D80000D1483121D08F03904389D0008008316B5
:103D90000D1030308312900483160C15831217080F
:103DA000F039083897000800A900A801291CDC2E6A
:103DB0002608A7002708A8070310A60D0310A90CC2
:103DC0002908031DD62E2808080081128111F83019
:103DD00081058B16831210149010CF3090058B172D
:103DE0000B171D08F03904389D0083160D140800C8
:103DF000B0000A30AD002D08A60030080A168A155A
:103E000072270A168A15AE0004300310AE0DFF3E6D
:103E1000031D052F0A30AF002F08A60030080A1630
:103E20008A15B5272E070800A700260803178D005E
:103E30000313270803178C008B1383160C155530BA
:103E40008D00AA308D008C14831203130D1E242FB5
:103E5000831603170C11831203130D128B1708001E
:103E6000B3000230B0003008A60033080A168A11E9
:103E70001E230A168A152708B2002608B100330847
:103E8000023E840000083206031D4F2F3308033E14
:103E9000840000083106031D4F2F01300800003058
:103EA0000800AA01AB01261C5B2F2808AA070318EB
:103EB000AB0A2908AB0701300310A80DA90DFF3E7E
:103EC000031D5C2F01300310A70CA60CFF3E031D41
:103ED000632F26082704031D532F2B08A7002A0849
:103EE000A6000800A800AA0126080319912FA9011D
:103EF000A90AA61B822F0310A60D0130A7002708D0
:103F0000A907792F0310AA0D26082802031C8C2F5D
:103F10002608A8022A140310A60C0130A902031DCA
:103F2000822F2A080800703083168F048F110F1417
:103F300003178801890103130710871407118715D8
:103F400007168716071387170510851005118511A9
:103F50000512851205138513061486140615861599
:103F600006128612061386130800AA000830A7005E
:103F70002708AB00AC012A08A70007300310A70CE4
:103F8000FF3E031DBE2F2C08A80028072704A90008
:103F90002908AC000310AA0D26082C02031CD22FFE
:103FA0002608AC020130AB02031DBB2F2C08080011
:103FB000A8000A168A1596260A168A1591150A1659
:103FC0008A1596260A168A1583121308A600A701D9
:103FD0002608A9002708AA000A168A1596260A1696
:103FE0008A1583122808031DF92F831603139116CF
:103FF000FC2F83160313911211168312290808004F
:04400E00F4E0FFFFDC
:00000001FF
