:020000040000FA
:020000000A28CC
:10000800FE00030EF0000A08F1004A290B28FB0144
:1000180083019E29B300FE30F9007908A500FE305F
:10002800F9007908A600FE30F9007908A700FE302B
:10003800F9007908A8002430F9007908A9003303E9
:10004800031D282847302C283308031D3128573032
:10005800F9007908AA0030303A2802303306031D27
:100068003D285730F9007908AA004230F90079088C
:10007800AB000230F9007908F2002A3077207308C3
:10008800B0007208AF003008F9007908AC002F08FA
:10009800F9007908AD002630F9007908AE0010148F
:1000A80083168C1083120514B10164000A30F9001C
:1000B8007908F2002530B920B201A4210130F900F5
:1000C8007908B20706303202031C61280130F900B2
:1000D8007908B1070A303102031C5928051010109D
:1000E80083168C140800A000A301A401A1017208C2
:1000F80021020318B42821082007F400740884009A
:1001080083130008F500F6017508F600F501750877
:10011800A3067608A406A201A41FA0282408F500B7
:100128002308F4000310F40DF50D21307406A30024
:1001380010307506A400A72801300310A30DA40DE4
:10014800FF3E031DA1280130F4007408A2070830FF
:100158002202031C90280130F4007408A1077B28B0
:100168002408F3002308F2000800F600F7017708D6
:10017800F300F401F31BF4037408803AF5008030AF
:100188007502031DC928720873020318EE28073088
:10019800F3007308F80077087607F3007308840003
:1001A80083130008F400780ADB280310F40CFF3EE0
:1001B800031DD928741CE2289721E3289021FF30D9
:1001C800F3007308F807F81FCF280130F30073080D
:1001D800F707BB28831203130515080083120313BE
:1001E800050E01396A21013A031DFD2801300E2050
:1001F8000800050CFA00FA0C7A0C01396A21013A58
:10020800031D092900300E200800060801396A215B
:10021800013A031D080002300E20080083168112DF
:1002280081150730810483129010CF309005121584
:1002380012088739083892001208FC3901389200F0
:1002480083168C1483121708F0390A3897001A306D
:1002580096000A3095008B170B170800703083162C
:100268008F041F08F03906389F0005108514051102
:1002780085150516051785170614861406118611A7
:1002880006128612831205108611080083160313BE
:100298008C1C572983128C1C57297B080319562953
:1002A8000130FB028C1071088A00700E8300FE0E6C
:1002B8007E0E090001308A000408840A820700348F
:1002C800213410342C34013400340034F300730327
:1002D800031D742988217303031D74290130080044
:1002E800003008008312851C08008821851C08003E
:1002F8008615802186110800C830F2007208FB00BC
:100308007B080319080084291430F2007208FB00E6
:100318007B08031908008C29831203130515A421EF
:100328000511A4210800831203130511A421051542
:10033800A4210800322112216400F2207621A0298C
:0C0348000C118E018F010C190800A72970
:02400E003CFF75
:00000001FF
